:020000040800F2
:10000000B855002001480008454F0008C9CC000839
:10001000474F00084B4F00084F4F000800000000FA
:10002000000000000000000000000000534F000826
:10003000554F00080000000013CC00085748000886
:100040001B4800081B4800081B4800081B48000804
:100050001B4800081B4800081B4800081B480008F4
:100060001B4800081B4800081B4800081B480008E4
:100070001B4800081B4800081B4800081B480008D4
:100080001B4800081B4800081B4800081B480008C4
:100090001B4800081B4800081B4800081B480008B4
:1000A0001B4800081B4800081B4800081B480008A4
:1000B0001B4800081B4800081B4800081B48000894
:1000C0001B4800081B4800081B4800081B48000884
:1000D0001B480008B54D00081B4800081B480008D5
:1000E000594F00081B4800081B4800081B4800081F
:1000F0001B4800081B4800081B4800081B48000854
:100100001B480008075600081B4800081B48000849
:100110001B4800081B4800081B4800081B48000833
:100120001B4800081B4800081B4800081B48000823
:100130001B4800089F7600081B4800081B48000861
:100140001B4800081B4800081B4800081B48000803
:100150001B4800081B4800081B4800081B480008F3
:100160001B4800081B4800081B4800081B480008E3
:100170001B4800081B4800081B4800081B480008D3
:100180001B4800081B48000800F002F800F065F862
:100190000AA090E8000C82448344AAF10107DA45E2
:1001A00001D100F05AF8AFF2090EBAE80F0013F0CF
:1001B000010F18BFFB1A43F0010318479CA302006C
:1001C000BCA302000A444FF0000C10F8013B13F0EE
:1001D000070408BF10F8014B1D1108BF10F8015BA0
:1001E000641E05D010F8016B641E01F8016BF9D193
:1001F00013F0080F1EBF10F8014BAD1C0C1B09D1EA
:100200006D1E58BF01F801CBFAD505E014F8016B5B
:1002100001F8016B6D1EF9D59142D6D370470000ED
:100220000023002400250026103A28BF78C1FBD8FF
:10023000520728BF30C148BF0B6070471FB528F078
:1002400023FC28F0EBFB04000020002128F006FC32
:10025000401C60601FBD10B510BD28F0BAFB1146F0
:10026000FFF7ECFF07F050FE28F0EAFB03B4FFF7BE
:10027000F2FF03BC28F0EAFB0CB5002001900090CF
:100280007548006840F480307349086000BF7248C8
:10029000006800F4003000900198401C0190009824
:1002A00018B90198B0F5A06FF1D16B48006810F44F
:1002B000003F02D00120009001E000200090009853
:1002C000012845D164484030006840F080506249C0
:1002D000403108606148006840F480405F49086030
:1002E0005D48083000685C490831086008460068CD
:1002F00040F4004008600846006840F4A0500860E0
:100300005748091F0860081F006840F08070091FE7
:10031000086000BF5048006810F0007FFAD040F23B
:100320000560504908604C480830006820F0030020
:100330004949083108600846006840F0020008603A
:1003400000BF45480830006800F00C000828F8D1CC
:100350000CBD10B54448006840F470004249086084
:100360003D48006840F001003B49086000203A49E0
:1003700008310860384800683C4908403649086040
:100380003B48091D0860081F006820F48020091FF1
:100390000860002030490C310860FFF76DFF4FF016
:1003A000006031498039086010BD70B5002000221E
:1003B000022300240221284D08352D6805F00C0089
:1003C00020B1042806D0082834D107E0294D2A4E50
:1003D000356033E0294D284E35602FE01E4D2D1D30
:1003E0002D68C5F380541C4D2D1D2D6805F03F016F
:1003F00054B1224DB5FBF1F5174E361D3668C6F3E4
:10040000881605FB06F209E01A4DB5FBF1F5124E10
:10041000361D3668C6F3881605FB06F20E4D2D1DF7
:100420002D68C5F301456D1C6B00B2FBF3F5124E50
:10043000356003E00F4D104E356000BF00BF064D24
:1004400008352D68C5F303150D4E705D0A4D2D68F6
:10045000C540094E356070BD003802400070004054
:1004600019544007003C024088ED00E0FFFFF6FE13
:10047000103000240024F4000000002040787D01AA
:100480000400002010B50446B4F5E06F0BD0B4F5BD
:10049000C06F08D0B4F5A06F05D0B4F5806F02D05E
:1004A000B4F5407F00D103E073215FA007F0FCFCAE
:1004B0006D4820436D49086010BD2DE9F0410446A8
:1004C000002500270F26E07810B1E078012800D140
:1004D00003E0872154A007F0E7FC6078102800DAD9
:1004E00003E0882150A007F0DFFCA078102800DA94
:1004F00003E089214CA007F0D7FCE07820B35B48EB
:10050000006800F4E060C0F5E060C0F30725C5F1C5
:100510000400C7B22E416078B840C5B2A078304020
:1005200005432807050E524821784554207800F0ED
:100530001F0101208840217849114FF0E02202EB91
:100540008101C1F8000109E0207800F01F010120BD
:10055000884048492278521141F82200BDE8F081D4
:1005600070B504460D46B4F1005F02D0B4F1006FDF
:1005700000D103E0B1212CA007F096FC3E48854253
:1005800000D203E0B22128A007F08EFC3B4905EA27
:10059000010020433549091F086070BD70B504464D
:1005A0000D46102C03D0042C01D0022C00D103E006
:1005B000C4211DA007F078FC0DB1012D00D103E08E
:1005C000C52119A007F070FC3DB12848001D006846
:1005D00020432649091D086006E02448001D0068E4
:1005E000A0432249091D086070BD10B50446042CC3
:1005F00001D0601D00D103E0DC210BA007F054FC0A
:10060000042C08D14FF0E020006940F004004FF0C6
:10061000E021086107E04FF0E020006920F00400CD
:100620004FF0E021086110BD2E2E2F53544D333270
:10063000463478785F4C69627261726965732F53D2
:10064000544D3332463478785F5374645065726920
:1006500070685F4472697665722F7372632F6D697B
:1006600073632E63000000000000FA050CED00E04B
:1006700000E400E080E100E0FFFF0F0080FFFF1FCB
:1006800010B50446FE4884423AD0FD4818308442F2
:1006900036D0FB483030844232D0F948483084426A
:1006A0002ED0F748603084422AD0F5487830844212
:1006B00026D0F3489030844222D0F148A8308442BA
:1006C0001ED0F04884421BD0EE481830844217D028
:1006D000EC483030844213D0EA48483084420FD08E
:1006E000E848603084420BD0E6487830844207D036
:1006F000E4489030844203D0E248A830844200D1DC
:1007000003E0BF21E04807F0CFFB206820F00100A4
:100710002060002020606060A060E06020612120F7
:100720006061D748844204D13D20D54910398860A2
:100730008CE0D3481830844205D14FF47460D0491E
:100740001039886082E0CE483030844205D14FF4C1
:100750007410CB491039886078E0C9484830844229
:1007600005D14FF07460C649103988606EE0C44806
:100770006030844204D1C548C1491039C86065E081
:10078000BF487830844204D1C148BD491039C8609F
:100790005CE0BB489030844204D1BE48B84910396F
:1007A000C86053E0B648A830844205D14FF03D50B0
:1007B000B3491039C86049E0B248844204D13D20B1
:1007C000B0490839086041E0AE481830844205D18C
:1007D0004FF47460AB490839086037E0A9483030FD
:1007E000844205D14FF47410A649083908602DE001
:1007F000A4484830844205D14FF07460A1490839BB
:10080000086023E09F486030844204D19F489D499E
:10081000091F08601AE09B487830844204D19C4844
:100820009849091F086011E096489030844204D12D
:1008300098489449091F086008E09248A83084420B
:1008400004D14FF03D508F49091F086010BD70B5AD
:1008500005460C4600268A4885423AD0884818301A
:10086000854236D086483030854232D08448483080
:1008700085422ED08248603085422AD08048783028
:10088000854226D07E489030854222D07C48A830D0
:1008900085421ED07B4885421BD07A48183085425D
:1008A00017D078483030854213D07648483085429A
:1008B0000FD07448603085420BD072487830854242
:1008C00007D070489030854203D06E48A8308542EA
:1008D00000D104E04FF49E716B4807F0E5FA206800
:1008E000D8B12068B0F1007F17D02068B0F1806FD8
:1008F00013D02068B0F1C06F0FD02068B0F1006F46
:100900000BD02068B0F1206F07D02068B0F1406FA5
:1009100003D02068B0F1606F00D104E040F23D11D7
:10092000594807F0C1FAE06828B1E068402802D0D1
:10093000E068802800D104E04FF49F71524807F02E
:10094000B3FA206920B12069B0F5803F00D204E0FD
:1009500040F23F114C4807F0A7FA6069B0F5007FFC
:1009600001D0606900B904E04FF4A071464807F077
:100970009BFAA069B0F5806F01D0A06900B904E0CE
:1009800040F24111404807F08FFAE06938B1E06960
:10099000B0F5006F03D0E069B0F5805F00D104E0EE
:1009A0004FF4A171384807F07FFA206A38B1206A05
:1009B000B0F5005F03D0206AB0F5804F00D104E0AD
:1009C00040F24311304807F06FFA606A18B1606A6C
:1009D000B0F5807F00D104E04FF4A2712A4807F0FF
:1009E00063FAA06A58B1A06AB0F5803F07D0A06A48
:1009F000B0F5003F03D0A06AB0F5403F00D104E05D
:100A000040F24511204807F04FFAE06A10B1E06A61
:100A1000042800D104E04FF4A3711B4807F044FA06
:100A2000206B40B1206B012805D0206B022802D03A
:100A3000206B032800D104E040F24711124807F070
:100A400033FA606B58B1606BB0F5000F07D0606B84
:100A5000B0F1807F03D0606BB0F1C07F00D104E0C3
:100A60004FF4A471084807F01FFAA06BC0B1A06B47
:100A7000B0F5001F14D0A06BB0F5800F10D00BE0C4
:100A80001060024010640240948A02083D00002079
:100A9000400F002000003D20A06BB0F5C00F00D13A
:100AA00004E040F24911FE4807F0FEF92E68FD48C7
:100AB0000640E1682068084361690843A16908436A
:100AC000E1690843216A0843616A0843A16A08434F
:100AD000616B0843A16B084306432E606E6926F0E4
:100AE0000706D4E90B01084306436E61206968607C
:100AF0006068A860A068E86070BD00210160416086
:100B00008160C160016141618161C16101624162D5
:100B10008162C162016341638163704770B50446BD
:100B20000D46E14884423AD0DF481830844236D03E
:100B3000DD483030844232D0DB48483084422ED009
:100B4000D948603084422AD0D7487830844226D0B1
:100B5000D5489030844222D0D348A83084421ED059
:100B6000D24884421BD0D1481830844217D0CF4895
:100B70003030844213D0CD48483084420FD0CB4827
:100B8000603084420BD0C9487830844207D0C748CF
:100B90009030844203D0C548A830844200D104E09C
:100BA00040F2D911BE4807F07FF90DB1012D00D1F7
:100BB00004E04FF4ED71BA4807F076F925B12068EA
:100BC00040F00100206003E0206820F00100206078
:100BD00070BD70B504460D46B34884423AD0B24861
:100BE0001830844236D0B0483030844232D0AE48DB
:100BF000483084422ED0AC48603084422AD0AA4883
:100C00007830844226D0A8489030844222D0A6482A
:100C1000A83084421ED0A54884421BD0A348183077
:100C2000844217D0A1483030844213D09F484830C6
:100C300084420FD09D48603084420BD09B4878306E
:100C4000844207D099489030844203D09748A83016
:100C5000844200D104E040F2FD11914807F024F9EC
:100C600015B1B5F5004F00D104E04FF4FF718C4889
:100C700007F01AF925B1206840F40040206003E035
:100C8000206820F40040206070BD70B504460D4619
:100C9000854884423AD084481830844236D082480D
:100CA0003030844232D08048483084422ED07E4852
:100CB000603084422AD07C487830844226D07A48FA
:100CC0009030844222D07848A83084421ED07748A1
:100CD00084421BD075481830844217D07348303096
:100CE000844213D07148483084420FD06F4860303E
:100CF00084420BD06D487830844207D06B489030E6
:100D0000844203D06948A830844200D104E040F214
:100D10002121634807F0C8F80DB1202D00D104E06F
:100D200040F222215E4807F0BFF825B1206840F06C
:100D30002000206003E0206820F02000206070BDCB
:100D400070B504460D46584884423AD0564818308B
:100D5000844236D054483030844232D052484830F1
:100D600084422ED05048603084422AD04E48783099
:100D7000844226D04C489030844222D04A48A83041
:100D800084421ED0494884421BD0484818308442CF
:100D900017D046483030844213D04448483084420B
:100DA0000FD04248603084420BD0404878308442B3
:100DB00007D03E489030844203D03C48A83084425B
:100DC00000D104E040F27521354807F06DF8656008
:100DD00070BD10B50446344884423AD032481830C9
:100DE000844236D030483030844232D02E484830A9
:100DF00084422ED02C48603084422AD02A48783051
:100E0000844226D028489030844222D02648A830F8
:100E100084421ED0254884421BD024481830844286
:100E200017D022483030844213D0204848308442C2
:100E30000FD01E48603084420BD01C48783084426A
:100E400007D01A489030844203D01848A830844212
:100E500000D104E04FF42171114807F025F86068D3
:100E600080B210BD70B504460E4615460E48844249
:100E700042D00D48183084423ED00B483030844276
:100E80003AD009484830844236D00748603084421E
:100E900032D00548783084422ED00348903007E0A5
:100EA000948A02083F801CF01060024010640240E7
:100EB000844221D0FE4884421ED0FE4884421BD08A
:100EC000FC481830844217D0FA483030844213D09E
:100ED000F848483084420FD0F648603084420BD046
:100EE000F4487830844207D0F2489030844203D0EE
:100EF000F048A830844200D104E040F2D221EE480C
:100F000006F0D2FF15B1B5F5002F00D104E040F294
:100F1000D321E94806F0C8FF25B1206840F400203D
:100F2000206003E0206820F400202060266170BD6E
:100F300070B504460D46DE48A838844239D0DC48F6
:100F40009038844235D0DA487838844231D0D84855
:100F5000603884422DD0D6484838844229D0D448BD
:100F60003038844225D0D2481838844221D0D04825
:100F700084421ED0CF4884421BD0CE4818308442D1
:100F800017D0CC483030844213D0CA48483084420D
:100F90000FD0C848603084420BD0C64878308442B5
:100FA00007D0C4489030844203D0C248A83084425D
:100FB00000D104E04FF43C71BF4806F075FF0DB15D
:100FC000012D00D104E040F2F121BB4806F06CFF96
:100FD00025B1206840F48020206003E0206820F4E0
:100FE0008020206070BD70B504460E461546B0489E
:100FF000A838844239D0AE489038844235D0AC48C5
:101000007838844231D0AA48603884422DD0A8482C
:101010004838844229D0A6483038844225D0A44894
:101020001838844221D0A24884421ED0A14884426C
:101030001BD0A0481830844217D09E4830308442DC
:1010400013D09C48483084420FD09A486030844284
:101050000BD098487830844207D09648903084422C
:1010600003D09448A830844200D104E040F21A3101
:10107000914806F019FF15B1B5F5002F00D104E035
:1010800040F21B318C4806F00FFF0DB1266100E0E5
:10109000E66070BD70B5044600258548A8388442D6
:1010A00039D083489038844235D08148783884429A
:1010B00031D07F48603884422DD07D484838844202
:1010C00029D07B483038844225D07948183884426A
:1010D00021D0774884421ED0764884421BD0754880
:1010E0001830844217D073483030844213D071488E
:1010F000483084420FD06F48603084420BD06D4836
:101100007830844207D06B489030844203D06948DD
:10111000A830844200D104E040F23531664806F040
:10112000C3FE206810F4002F01D0012500E0002547
:10113000284670BD70B5044600255D48A838844235
:1011400039D05B489038844235D059487838844249
:1011500031D05748603884422DD0554848388442B1
:1011600029D053483038844225D051481838844219
:1011700021D04F4884421ED04E4884421BD04D4857
:101180001830844217D04B483030844213D049483D
:10119000483084420FD04748603084420BD04548E5
:1011A0007830844207D043489030844203D041488D
:1011B000A830844200D104E040F2A2313E4806F05B
:1011C00073FE206810F0010F01D0012500E000251A
:1011D000284670BD70B5044600253548A8388442BD
:1011E00039D033489038844235D0314878388442F9
:1011F00031D02F48603884422DD02D484838844261
:1012000029D02B483038844225D0294818388442C8
:1012100021D0274884421ED0264884421BD025482E
:101220001830844217D023483030844213D02148EC
:10123000483084420FD01F48603084420BD01D4894
:101240007830844207D01B489030844203D019483C
:10125000A830844200D104E04FF47171164806F0C2
:1012600023FE606900F03805284670BD2DE9F04185
:1012700005460C464FF0000800270D48A838854267
:1012800040D00B48903885423CD009487838854298
:1012900038D007486038854234D005484838854200
:1012A00030D00348303885422CD00148183805E04A
:1012B000B860024010640240948A0208854221D03E
:1012C000FE4885421ED0FE4885421BD0FC4818309F
:1012D000854217D0FA483030854213D0F84848305C
:1012E00085420FD0F648603085420BD0F448783004
:1012F000854207D0F2489030854203D0F048A830AC
:10130000854200D104E040F2E131EE4806F0CCFD28
:10131000A4F18050203874D0103072D0083070D0D2
:10132000A4F18450001F6CD0E748844269D0E7489C
:10133000844266D0E648844263D0E648844260D066
:10134000E54884425DD0A4F18050403859D0B4F1D2
:10135000815F56D0E148844253D0E148844250D066
:10136000E04884424DD0E04884424AD0B4F1C05FA6
:1013700047D0B4F1A05F44D0B4F1905F41D0B4F154
:10138000885F3ED0B4F1825F3BD0A4F1005020389A
:1013900037D0103035D0083033D0001D31D0D3488D
:1013A00084422ED0D24884422BD0D248844228D0C6
:1013B000D148844225D0CD48FF30844221D0A4F1C9
:1013C000005040381DD0CD4884421AD0CC488442C9
:1013D00017D0CC48844214D0CB48844211D0CB489B
:1013E00084420ED0B4F1205F0BD0B4F1105F08D06E
:1013F000B4F1085F05D0B4F1045F02D0B4F1015F2D
:1014000000D104E040F2E231AE4806F04DFDAC48B8
:10141000854202D2A94EB83E01E0A94E103E14F01A
:10142000005F01D0776800E03768B948074027427D
:1014300002D04FF0010801E04FF000084046BDE83F
:10144000F08170B504460D469C48A838844239D0D6
:101450009A489038844235D098487838844231D0C0
:101460009648603884422DD094484838844229D028
:1014700092483038844225D090481838844221D090
:101480008E4884421ED08E4884421BD08C4818302F
:10149000844217D08A483030844213D0884848307C
:1014A00084420FD08648603084420BD08448783024
:1014B000844207D082489030844203D08048A830CC
:1014C000844200D104E040F222417E4806F0ECFC68
:1014D00005F04050B0F1405F07D015F0405F04D0F8
:1014E0008C48054201D105B104E040F22341754822
:1014F00006F0DAFC7248844202D2704EB83E01E037
:101500006F4E103E15F0005F03D081482840F06018
:1015100002E07F482840B06070BD70B504460D46BB
:1015200016466648A838844239D0644890388442C8
:1015300035D062487838844231D06048603884427F
:101540002DD05E484838844229D05C4830388442E7
:1015500025D05A481838844221D0584884421ED099
:10156000574884421BD056481830844217D05448FC
:101570003030844213D05248483084420FD0504813
:10158000603084420BD04E487830844207D04C48BB
:101590009030844203D04A48A830844200D104E00D
:1015A00040F24F41474806F07FFC35F09E0001D1E4
:1015B00005B104E04FF48A61424806F075FC0EB1B3
:1015C000012E00D104E040F251413E4806F06CFC8F
:1015D00015F0800F09D026B1606940F0800060618D
:1015E00003E0606920F080006061802D0BD02EB197
:1015F000206805F01E010843206004E0206805F023
:101600001E018843206070BD2DE9F04705460C4659
:101610004FF000080027B9462848A838854239D03D
:1016200026489038854235D024487838854231D0D4
:101630002248603885422DD020484838854229D03C
:101640001E483038854225D01C481838854221D0A4
:101650001A4885421ED01A4885421BD018481830B7
:10166000854217D016483030854213D01448483090
:1016700085420FD01248603085420BD01048783038
:10168000854207D00E489030854203D00C48A830E0
:10169000854200D104E040F287410A4806F004FC8C
:1016A0001D4884427ED01D4884427BD01C48844221
:1016B00078D0A4F11020001F74D033E0B86002404D
:1016C00010640240948A0208010080100008001093
:1016D00000040010000200100001001000001010B3
:1016E000000008100000041000000110010000209C
:1016F000000800200004002000020020000020203C
:10170000000010200000082000000420000001203C
:101710007D0F7D0F82F082C02080001010400010ED
:1017200008200010864884426ED0864884426BD0E0
:101730008548844268D08548844265D08448844284
:1017400062D07F483F3084425ED0824884425BD082
:101750008148844258D08148844255D08048844290
:1017600052D0804884424FD07F4884424CD07F483A
:10177000844249D07E48844246D07E48844243D049
:101780007D48844240D07D4884423DD07C4884429C
:101790003AD0A4F12020083836D07A48844233D099
:1017A000794800E030E084422ED0784884422BD043
:1017B0007748844228D07748844225D07148FC304D
:1017C000844221D070483F3084421DD07248844208
:1017D0001AD07248844217D07148844214D071489C
:1017E000844211D0704884420ED0704884420BD09D
:1017F0006F48844208D06F48844205D06E488442C6
:1018000002D06E48844200D104E04FF491616C48EC
:1018100006F04AFB6B48854201D26B4E01E0694EEF
:10182000103E6A48044206D01E2000EAD4272868E9
:1018300000EA070902E0686900F0800914F0005F1F
:1018400001D0776800E0376861480740274205D03B
:10185000B9F1000F02D04FF0010801E04FF000088D
:101860004046BDE8F08770B504460D465648103036
:1018700084423AD054482830844236D052484030CE
:10188000844232D05048583084422ED04E48703076
:1018900084422AD04C488830844226D04A48A0301E
:1018A000844222D04848B83084421ED04548844201
:1018B0001BD044481830844217D04248303084420C
:1018C00013D04048483084420FD03E4860308442B4
:1018D0000BD03C487830844207D03A48903084425C
:1018E00003D03848A830844200D104E040F2D74108
:1018F000334806F0D9FA05F04050B0F1405F07D008
:1019000015F0405F04D01DB13248054200D104E01B
:101910004FF49B612A4806F0C7FA2A48844201D254
:10192000294E01E0274E103E15F0005F03D02848F5
:101930002840F06002E026482840B06070BD0000FA
:1019400001000090008800100044001000220010E8
:10195000001100100080201000401010002008101E
:1019600000100410000001900080001800400014D6
:101970000020001200100011000040902080002084
:101980001040002004100020010000A0008800206A
:101990000044002000220020008020200040102071
:1019A0000020082000100420000001A00080002872
:1019B000004000240020002200100021000040A070
:1019C000948A020810640240006002403C0F3C0F01
:1019D0007D0F7D0F820082400020B1490860091D03
:1019E0000860091D0860091D0860AE48AC49143143
:1019F0000860704770B504460025207910B1207941
:101A0000042800D103E07C21A74806F04DFA607954
:101A1000082805D060790C2802D06079102800D100
:101A200003E07D21A04806F03FFA2068C00DC00504
:101A300002D1206800B103E07E219B4806F034FA11
:101A4000A07910B1A079012800D103E07F21964848
:101A500006F02AFA924DA07990B3284600682168D2
:101A6000884329460860081D006821688843291DAD
:101A70000860207905442868216808432860884860
:101A80000830006821688843854908310860081DCE
:101A900000682168884382490C3108606079102809
:101AA0000FD1081F0068216808437D49083108608C
:101AB000081D00682168084379490C3108600EE070
:101AC00007E0774D6079054428682168084328605D
:101AD00005E020790544286821688843286070BDA6
:101AE0000021016001710C21417100218171704759
:101AF00010B50446E00DC00501D104B103E0C121D9
:101B0000694806F0D1F966481030006820436449FE
:101B10001031086010BD70B504460025012C3AD084
:101B2000022C38D0042C36D0082C34D0102C32D0D3
:101B3000202C30D0402C2ED0802C2CD0B4F5807F9F
:101B400029D0B4F5007F26D0B4F5806F23D0B4F54A
:101B5000006F20D0B4F5805F1DD0B4F5005F1AD0BF
:101B6000B4F5804F17D0B4F5004F14D0B4F5803FD2
:101B700011D0B4F5003F0ED0B4F5802F0BD0B4F5E2
:101B8000002F08D0B4F5801F05D0B4F5001F02D097
:101B9000B4F5800F00D103E0E021434806F084F95A
:101BA0003F4814300068204201D0012500E00025A4
:101BB000284670BD10B50446E00DC00501D104B142
:101BC00003E0F621384806F06FF935481430046018
:101BD00010BD70B5044600250026012C3AD0022C19
:101BE00038D0042C36D0082C34D0102C32D0202CF5
:101BF00030D0402C2ED0802C2CD0B4F5807F29D032
:101C0000B4F5007F26D0B4F5806F23D0B4F5006F13
:101C100020D0B4F5805F1DD0B4F5005F1AD0B4F5C4
:101C2000804F17D0B4F5004F14D0B4F5803F11D0D9
:101C3000B4F5003F0ED0B4F5802F0BD0B4F5002FD3
:101C400008D0B4F5801F05D0B4F5001F02D0B4F55C
:101C5000800F00D104E04FF48371134806F024F99B
:101C60000F48006800EA04060D481430006820425E
:101C700002D00EB1012500E00025284670BD10B548
:101C80000446E00DC00501D104B104E040F21D118D
:101C9000054806F009F902481430046010BD000040
:101CA000003C0140FFFF7F00DC8A020810B50446BB
:101CB000FA48844217D0FA48844214D0F948844242
:101CC00011D0F94884420ED0F84884420BD0F8482D
:101CD000844208D0F748844205D0F748844202D0B5
:101CE000F648844200D103E07B21F54806F0DCF899
:101CF000EA48844208D10121084601F0C1F80021D8
:101D0000012001F0BDF85EE0E548844208D10121E0
:101D1000022001F0B5F80021022001F0B1F852E0F4
:101D2000E048844208D10121042001F0A9F80021F3
:101D3000042001F0A5F846E0DB48844208D10121E7
:101D4000082001F09DF80021082001F099F83AE000
:101D5000D648844208D10121102001F091F80021D9
:101D6000102001F08DF82EE0D148844208D10121E5
:101D7000202001F085F80021202001F081F822E0E8
:101D8000CC48844208D10121402001F079F800219B
:101D9000402001F075F816E0C748844208D10121BF
:101DA000802001F06DF80021802001F069F80AE040
:101DB000C248844207D10121801501F061F8002159
:101DC000A01501F05DF810BD2DE9F04104460D4667
:101DD00000260027B046B148844217D0B04884425C
:101DE00014D0B048844211D0AF4884420ED0AF48DE
:101DF00084420BD0AE48844208D0AE48844205D01D
:101E0000AD48844202D0AD48844200D103E0BB21FA
:101E1000AB4806F049F8002010B9286800B103E08B
:101E2000BC21A74806F040F8287940B1287901285C
:101E300005D02879022802D02879032800D103E0B0
:101E4000BD219F4806F030F8E87928B1E8790128EB
:101E500002D0E879022800D103E0BE21984806F0BC
:101E600023F8002657E0012000FA06F7286800EA68
:101E70000708B8454ED1206872000321914088437D
:101E80002060287971008840216808432060287903
:101E9000012802D02879022830D1687940B16879C8
:101EA000012805D06879022802D06879032800D17A
:101EB00003E0D021824805F0F7FFA06872000321FB
:101EC00091408843A060687971008840A168084308
:101ED000A060A87910B1A879012800D103E0D7212A
:101EE000774805F0E1FF61680120B04081436160FF
:101EF0006068A979B14089B208436060E068720007
:101F0000032191408843E060E87971008840E168EE
:101F10000843E060761C102EA5D3BDE8F0814FF693
:101F2000FF7101600021017141718171C1717047C0
:101F300038B504460D464FF480300090574884422F
:101F400017D05748844214D05648844211D056487E
:101F500084420ED0554884420BD05548844208D064
:101F60005448844205D05448844202D053488442A5
:101F700000D104E04FF48271514805F095FF002034
:101F800008B905B104E040F205114D4805F08CFF99
:101F90000098284300900098E061E5610098E061B6
:101FA000E0690090E069009038BD70B505460C46C8
:101FB00000263A48854217D03948854214D039481E
:101FC000854211D0384885420ED0384885420BD022
:101FD0003748854208D03748854205D03648854283
:101FE00002D03648854200D104E04FF4987134485D
:101FF00005F05AFF012C25D0022C23D0042C21D02F
:10200000082C1FD0102C1DD0202C1BD0402C19D0F8
:10201000802C17D0B4F5807F14D0B4F5007F11D098
:10202000B4F5806F0ED0B4F5006F0BD0B4F5805FBF
:1020300008D0B4F5005F05D0B4F5804F02D0B4F5F8
:10204000004F00D104E040F231111D4805F02CFF93
:102050002869204201D0012600E00026304670BDEC
:1020600010B504460D48844217D00D48844214D060
:102070000C48844211D00C4884420ED00B48844254
:102080000BD00B48844208D00A48844205D00A4845
:10209000844202D00948844214D118E00000024072
:1020A0000004024000080240000C02400010024000
:1020B0000014024000180240001C024000200240B0
:1020C000248B02084FF4A371FE4805F0EDFE206951
:1020D00080B210BD70B505460C460026FA48854210
:1020E00017D0FA48854214D0F948854211D0F948F2
:1020F00085420ED0F84885420BD0F848854208D07A
:10210000F748854205D0F748854202D0F648854217
:1021100000D104E040F25711EA4805F0C5FE012C59
:1021200025D0022C23D0042C21D0082C1FD0102C19
:102130001DD0202C1BD0402C19D0802C17D0B4F5EA
:10214000807F14D0B4F5007F11D0B4F5806F0ED02D
:10215000B4F5006F0BD0B4F5805F08D0B4F5005F24
:1021600005D0B4F5804F02D0B4F5004F00D104E0A3
:102170004FF4AC71D34805F097FE6869204201D056
:10218000012600E00026304670BD10B50446CE485A
:10219000844217D0CD48844214D0CD48844211D017
:1021A000CC4884420ED0CC4884420BD0CB488442E9
:1021B00008D0CB48844205D0CA48844202D0CA48DD
:1021C000844200D104E040F26D11BE4805F06CFE7F
:1021D000606980B210BD70B504460D46BA488442AD
:1021E00017D0BA48844214D0B948844211D0B948B3
:1021F00084420ED0B84884420BD0B848844208D0FC
:10220000B748844205D0B748844202D0B6488442D9
:1022100000D104E040F27F11AA4805F045FE0020FD
:1022200008B905B104E04FF4C071A64805F03CFEC2
:10223000258370BD70B504460D46A348844217D06F
:10224000A248844214D0A248844211D0A1488442BA
:102250000ED0A14884420BD0A048844208D0A048A8
:10226000844205D09F48844202D09F48844200D1D6
:1022700004E04FF4C971934805F016FE002008B938
:1022800005B104E040F293118E4805F00DFE658320
:1022900070BD70B505460C4616468B48854217D072
:1022A0008A48854214D08A48854211D0894885429F
:1022B0000ED0894885420BD08848854208D088488E
:1022C000854205D08748854202D08748854200D1A3
:1022D00004E04FF4D3717B4805F0E6FD012C25D0D6
:1022E000022C23D0042C21D0082C1FD0102C1DD060
:1022F000202C1BD0402C19D0802C17D0B4F5807F17
:1023000014D0B4F5007F11D0B4F5806F0ED0B4F5C1
:10231000006F0BD0B4F5805F08D0B4F5005F05D036
:10232000B4F5804F02D0B4F5004F00D104E040F284
:10233000A711644805F0B8FD0EB1012E00D104E0EC
:102340004FF4D4715F4805F0AFFD0EB12C8300E06F
:102350006C8370BD70B504460D465B48844217D04F
:102360005A48844214D05A48844211D05948844271
:102370000ED0594884420BD05848844208D058485F
:10238000844205D05748844202D05748844200D145
:1023900004E040F2BD114B4805F086FD656170BD5B
:1023A00070B504460D464848844217D047488442D9
:1023B00014D04748844211D0464884420ED0464843
:1023C00084420BD04548844208D04548844205D019
:1023D0004448844202D04448844200D104E040F2A0
:1023E000CB11384805F060FD60696840606170BDE0
:1023F0002DE9F04106460D4614460027B8463248FE
:10240000864217D03148864214D03148864211D0D6
:10241000304886420ED0304886420BD02F48864244
:1024200008D02F48864205D02E48864202D02E483A
:10243000864200D104E040F21721224805F034FD25
:10244000EDB1012D1BD0022D19D0032D17D0042D75
:1024500015D0052D13D0062D11D0072D0FD0082D26
:102460000DD0092D0BD00A2D09D00B2D07D00C2D26
:1024700005D00D2D03D00E2D01D00F2D00D104E07D
:102480004FF406710F4805F00FFD7CB3092C47D0BF
:1024900064B35CB354B34CB3012C41D040D0022C94
:1024A0003ED03DD03CD0032C3AD0042C38D037D08D
:1024B00036D0052C34D033D0092C31D0062C2FD077
:1024C000092C14E0248B02080000024000040240A2
:1024D00000080240000C02400010024000140240BC
:1024E00000180240001C02400020024018E017D0F3
:1024F000072C15D014D013D0082C11D010D00FD029
:10250000092C0DD00CD00A2C0AD009D00B2C07D0E6
:102510000C2C05D004D003D00D2C01D00F2C00D1F1
:1025200004E040F21921124805F0BEFC6807C00E15
:1025300004FA00F7E91006F1200050F821006907BD
:10254000CA0E0F2191408843EA1006F1200141F89C
:102550002200E91006F1200050F8210040EA0708A7
:10256000E91006F1200040F82180BDE8F08100006C
:10257000248B0208F948006840F00100F749086020
:102580000020F64908310860F4480068F449084022
:10259000F2490860F348091D0860081F006820F42C
:1025A0008020091F08600020EC490C31086070474A
:1025B00010B504461CB1012C01D0052C00D103E05C
:1025C000F021E94805F070FC0020E449891C0870FE
:1025D0000846047010BD2DE9F04104460025002690
:1025E0000027212C17D0312C15D0392C13D0412C99
:1025F00011D0612C0FD0792C0DD07A2C0BD07B2CE4
:1026000009D07C2C07D07D2C05D07E2C03D07F2CCC
:1026100001D03B2C00D104E040F29C61D24805F08F
:1026200043FC6511012D02D1CC48066808E0022D5B
:1026300003D1CA487030066802E0C84874300668A2
:1026400004F01F050120A840304201D0012700E01E
:1026500000273846BDE8F08138B5002000900024FE
:10266000002500BF3120FFF7B6FF05460098401C4B
:1026700000900098B0F5A06F01D0002DF2D031206D
:10268000FFF7A9FF08B1012400E00024204638BD6F
:1026900070B5044600251F2C00DC04E04FF4947153
:1026A000B14805F001FCAD48056825F0F80545EA9C
:1026B000C405056070BD10B504460CB1012C00D1F5
:1026C00004E040F24B11A84805F0EEFBA748046077
:1026D00010BD10B504461CB1012C01D0042C00D152
:1026E00004E04FF4B271A04805F0DEFB00209B49E6
:1026F000703108700870012C02D0042C0AD104E05B
:10270000012096497031087005E005209349703129
:10271000087000E000BF00BF10BD10B504460CB14A
:10272000012C00D104E04FF4C6718F4805F0BCFBCA
:102730008F48046010BD2DE9F04105460F4616464E
:102740001C46DDF8188015B1B5F5800F00D104E006
:1027500040F2B711844805F0A7FB3F2F00D804E0F2
:102760004FF4DC71804805F09FFBC02E03D3B6F513
:10277000D87F00D804E040F2B9117B4805F094FB03
:10278000022C05D0042C03D0062C01D0082C00D13B
:1027900004E04FF4DD71744805F086FBB8F1040FD6
:1027A00003D3B8F10F0F00D804E040F2BB116E481C
:1027B00005F07AFB47EA86100121C1EB540140EA9B
:1027C0000140284340EA08606449091D0860BDE8EB
:1027D000F08110B504460CB1012C00D104E04FF497
:1027E000E771614805F060FB6048046610BD70B594
:1027F00005460C46C02D03D3B5F5D87F00D804E0BC
:102800004FF4F471584805F04FFB022C02D3072C0B
:1028100000D804E040F2E911534805F045FBA80157
:1028200040EA04704D498431086070BD10B504461B
:102830000CB1012C00D104E040F2F7114A4805F038
:1028400033FB4A48846610BD10B504460CB1012C18
:1028500000D104E040F20921434805F025FB43483C
:10286000C46410BD70B505460C46002645B1B5F5EB
:10287000001F05D0B5F5800F02D0B5F5C00F00D10F
:1028800004E04FF40971384805F00EFB5CB1B4F177
:10289000806F08D0B4F1A06F05D0B4F1C06F02D042
:1028A000B4F1E06F00D104E040F225212E4805F09C
:1028B000FBFA2A480830066826F0EC6645EA040070
:1028C000064326480830066070BD70B505460C46C4
:1028D000002645B1B5F1804F05D0B5F1004F02D0CB
:1028E000B5F1404F00D104E040F24A211E4805F006
:1028F000DBFA5CB1B4F1005F08D0B4F1205F05D021
:10290000B4F1405F02D0B4F1605F00D104E040F266
:102910004B21154805F0C8FA10480830066826F023
:10292000784645EA040006430C480830066070BD4E
:1029300070B5044600251CB1012C01D0022C00D139
:1029400004E04FF42D71084805F0AEFA0348083052
:10295000056825F003052543056070BD0038024079
:10296000FFFFF6FE103000246C8B02080000474287
:10297000800E4742F648006800F00C00704770B5C2
:10298000044600257CB1802C0DD0902C0BD0A02CBF
:1029900009D0B02C07D0C02C05D0D02C03D0E02C0F
:1029A00001D0F02C00D104E040F2E921E94805F023
:1029B0007BFAE748056825F0F0052543056070BD02
:1029C00070B5044600255CB1B4F5805F08D0B4F55D
:1029D000A05F05D0B4F5C05F02D0B4F5E05F00D1D0
:1029E00004E040F20931DB4805F05EFAD84805689A
:1029F00025F4E0552543056070BD70B504460025FB
:102A00005CB1B4F5805F08D0B4F5A05F05D0B4F533
:102A1000C05F02D0B4F5E05F00D104E04FF44A712A
:102A2000CC4805F041FACA48056825F4604545EAF6
:102A3000C405056070BDF0B5002100220024022508
:102A400000260223C24F3F6807F00C0121B1042980
:102A500005D0082937D105E0BF4F076036E0BF4FEA
:102A6000076033E0BA4F3F1F3F68C7F38056B84F47
:102A70003F1F3F6807F03F036EB1B84FB7FBF3F756
:102A8000DFF8CCC2ACF1040CDCF800C0CCF3881C3D
:102A900007FB0CF40CE0B04FB7FBF3F7DFF8B0C264
:102AA000ACF1040CDCF800C0CCF3881C07FB0CF480
:102AB000A74F3F1F3F68C7F301477F1C7D00B4FB52
:102AC000F5F7076002E0A44F076000BF00BFA04F0A
:102AD0003F6807F0F0010909A14F7A5C0768D74009
:102AE00047609B4F3F6807F4E051890A9C4F7A5C2E
:102AF0004768D7408760964F3F6807F46041490BAD
:102B0000974F7A5C4768D740C760F0BD70B5044600
:102B10000025B4F5807F5CD0B4F5007F59D0914892
:102B2000844256D09048844253D09048844250D03A
:102B30008F4884424DD08F4884424AD08E48844288
:102B400047D08E48844244D08D48844241D08D483D
:102B500084423ED08C4884423BD08C48844238D05A
:102B60008B48844235D08B48844232D08A48844294
:102B70002FD08A4884422CD08948844229D0894861
:102B8000844226D08848844223D08848844220D07A
:102B9000874884421DD0874884421AD086488442A0
:102BA00017D08648844214D08548844211D0854885
:102BB00084420ED0844884420BD08448844208D09A
:102BC0008348844205D08348844202D082488442AC
:102BD00000D104E040F2D9315E4805F065F904F413
:102BE0004070B0F5407F09D15948056825F4F815C3
:102BF0007A4904EA010005435548056054486830A5
:102C00000068C4F30B01084351496831086070BD86
:102C100010B504460CB1012C00D104E040F2F731AC
:102C20004C4805F041F96E48046010BD10B50446EB
:102C30000CB1012C00D104E04FF48161454805F04E
:102C400033F96748001D046010BD10B504460CB18F
:102C5000012C00D104E040F219413E4805F024F96E
:102C60006048046010BD70B504460D465E480442DD
:102C700001D104B104E04FF48861364805F014F93D
:102C80000DB1012D00D104E040F24241314805F080
:102C90000BF93DB12E482830006820432C492831DB
:102CA000086006E02A4828300068A04328492831F7
:102CB000086070BD70B504460D4634F0F10001D1D6
:102CC00004B104E04FF48C61224805F0EDF80DB139
:102CD000012D00D104E040F261411E4805F0E4F806
:102CE0003DB11B482C300068204319492C31086045
:102CF00006E017482C300068A04315492C310860C5
:102D000070BD70B504460D4634F0010001D104B128
:102D100004E040F27B410F4805F0C6F80DB1012DEB
:102D200000D104E040F27C410A4805F0BDF83DB115
:102D3000074830300068204305493031086006E01C
:102D4000034830300068A04301493031086070BD4D
:102D5000083802406C8B02080024F40040787D01A2
:102D6000140000200003020000030300000304001D
:102D7000000305000003060000030700000308002D
:102D80000003090000030A0000030B0000030C000D
:102D900000030D0000030E0000030F0000031000ED
:102DA00000031100000312000003130000031400CD
:102DB00000031500000316000003170000031800AD
:102DC0000003190000031A0000031B0000031C008D
:102DD00000031D0000031E0000031F00FFFCFF0F87
:102DE0003C0E47425C01474200EE8B8170B50446C1
:102DF0000D46FA48044201D104B104E040F2AD416D
:102E0000F74805F051F80DB1012D00D104E040F272
:102E1000AE41F34805F048F82DB1F2480068204370
:102E2000F049086004E0EF480068A043ED490860FD
:102E300070BD70B504460D46EB48044201D104B1A3
:102E400004E040F2D541E64805F02EF80DB1012D21
:102E500000D104E040F2D641E14805F025F83DB14B
:102E6000E048001D00682043DE49091D086006E0B7
:102E7000DC48001D0068A043DA49091D086070BDE8
:102E800070B504460D46D948044201D104B104E0AE
:102E900040F2FC41D24805F007F80DB1012D00D1F8
:102EA00004E040F2FD41CE4804F0FEFF3DB1CD48C4
:102EB000303800682043CB493039086006E0C94803
:102EC00030380068A043C7493039086070BD70B51C
:102ED00004460D4634F0F10001D104B104E040F2A3
:102EE0001951BF4804F0E0FF0DB1012D00D104E0FD
:102EF00040F21A51BA4804F0D7FF3DB1B9482C3816
:102F000000682043B7492C39086006E0B5482C38E2
:102F10000068A043B3492C39086070BD70B5044601
:102F20000D4634F0010001D104B104E040F231510A
:102F3000AB4804F0B9FF0DB1012D00D104E040F21F
:102F40003251A74804F0B0FF3DB1A64828380068C8
:102F50002043A4492839086006E0A24828380068C0
:102F6000A043A0492839086070BD70B504460D46DD
:102F70009A48044201D104B104E04FF4AC6198488E
:102F800004F092FF0DB1012D00D104E040F2615137
:102F9000934804F089FF3DB19248203800682043EF
:102FA00090492039086006E08E4820380068A04328
:102FB0008C492039086070BD70B504460D468C48B8
:102FC000044201D104B104E040F28451844804F089
:102FD0006BFF0DB1012D00D104E040F28551804816
:102FE00004F062FF3DB17F481C38006820437D49F2
:102FF0001C39086006E07B481C380068A04379490A
:103000001C39086070BD70B504460D46794804420D
:1030100001D104B104E040F2B251714804F044FF20
:103020000DB1012D00D104E040F2B3516C4804F021
:103030003BFF3DB16B4810300068204369491031B7
:10304000086006E0674810300068A0436549103109
:10305000086070BD70B504460D4634F0F10001D132
:1030600004B104E040F2D2515D4804F01DFF0DB1FF
:10307000012D00D104E040F2D351594804F014FF6F
:103080003DB1584814300068204356491431086057
:1030900006E0544814300068A043524914310860D7
:1030A00070BD70B504460D4634F0010001D104B185
:1030B00004E040F2ED514A4804F0F6FE0DB1012D56
:1030C00000D104E040F2EE51454804F0EDFE3DB180
:1030D000444818300068204342491831086006E02F
:1030E000404818300068A0433E491831086070BD60
:1030F00070B504460D463948044201D104B104E0DC
:1031000040F21F61364804F0CFFE0DB1012D00D111
:1031100004E04FF4C461324804F0C6FE3DB13148CA
:103120002030006820432F492031086006E02D48F8
:1031300020300068A0432B492031086070BD70B575
:1031400004460D462848044201D104B104E040F28F
:103150004761234804F0A8FE0DB1012D00D104E021
:103160004FF4C9611E4804F09FFE3DB11D48243054
:10317000006820431B492431086006E019482430C8
:103180000068A04317492431086070BD70B504463B
:103190000D4614F0C00F01D104B104E040F2746197
:1031A0000F4804F081FE0DB1012D00D104E040F282
:1031B00075610B4804F078FE3DB10A483338007859
:1031C000204308493339087006E006483338007850
:1031D000A04304493339087070BD0000003601C9AE
:1031E0006C8B020840380240CCA0F8FF00EE9FDD57
:1031F000CCA6F8FF006E98811B48006840F08070F4
:1032000019490860704770B504460025012C0BD0A1
:10321000022C09D0042C07D0082C05D0102C03D088
:10322000802C01D0202C00D104E040F2DA610F485C
:1032300004F03AFE0C4868380068204201D00125AD
:1032400000E00025284670BD10B5044614F0400F7C
:1032500001D104B104E040F2F961044804F024FE15
:1032600001486638047010BD743802406C8B020847
:1032700010B50121C802FFF79FFE00214FF4006046
:10328000FFF79AFE10BD70B504460025206818B1FE
:103290002068B0F5005F00D104E040F21511F84855
:1032A00004F002FE606818B16068B0F5806F00D16C
:1032B00004E04FF48B71F24804F0F6FDA06818B1F9
:1032C000A068B0F5007F00D104E040F21711EC488F
:1032D00004F0EAFDE06838B1E068B0F5006F03D0B3
:1032E000E068B0F5805F00D104E04FF48C71E448F1
:1032F00004F0DAFD206918B12069B0F5804F00D1E3
:1033000004E040F21911DE4804F0CEFDDD48056806
:1033100047F6FF608543207DA16808436168084344
:10332000E168084321680843216908430543D548FB
:10333000056070BD00210175016041608160C16060
:103340000161704710B504460CB1012C00D104E0B6
:103350004FF4A571CA4804F0A7FDCB48046010BD26
:1033600010B504460CB1032C00D104E04FF4AD714C
:10337000C34804F099FDC348001F046010BDC14854
:10338000001F006800F00300704770B50446002578
:103390006068402800D204E040F28D11B84804F083
:1033A00083FDA06828B1A068402802D0A068C0288A
:1033B00000D104E04FF4C771B14804F075FDE06836
:1033C00038B1E068B0F5807F03D0E068B0F5007FE9
:1033D00000D104E040F28F11A94804F065FD206996
:1033E000B0F5806F01D0206900B904E04FF4C871D6
:1033F000A34804F059FDA349091D20680860081D71
:1034000005686FF30A05D4E901010843E168084340
:103410002169084305439B480830056070BD0021C1
:10342000016041608160C1600161704795480C3066
:103430000068C0B2704738B50446002000902CB137
:10344000042C03D0082C01D00C2C00D104E040F255
:10345000CF118B4804F028FD8A481030204400909A
:103460000098006838BD70B5044600256068B0F16A
:10347000007F00D204E040F2F511814804F014FD11
:10348000A06848B3A068102826D0A068202823D0C0
:10349000A068302820D0A06840281DD0A0685028FF
:1034A0001AD0A068602817D0A068702814D0A0682F
:1034B000802811D0A06890280ED0A068A0280BD03A
:1034C000A068B02808D0A068C02805D0A068D0287F
:1034D00002D0A068E02800D104E04FF4FB716848F6
:1034E00004F0E2FCE06810B1E068022800D104E0DA
:1034F00040F2F711624804F0D7FC2069042801D09B
:10350000206900B904E04FF4FC715D4804F0CCFC84
:103510006069012801D0606900B904E040F2F91146
:10352000574804F0C1FC5749203120680860091D44
:1035300060680860081D056825F0F705D4E90201F8
:103540000843216908436169084305434D48283011
:10355000056070BD4FF0FF31016000214160816066
:10356000C16001614161704746482C300068704776
:1035700044487C300068704742497C31086070479D
:10358000404844300068704710B504460CB1012C27
:1035900000D104E040F26721394804F085FC3B4843
:1035A000046010BD10B504460CB1012C00D104E03C
:1035B00040F27521324804F077FC3448001D046065
:1035C00010BD10B504460CB1012C00D104E040F24E
:1035D00085212B4804F068FC2C480830046010BD9D
:1035E00010B504460CB1012C00D104E040F2932147
:1035F000234804F059FC25480C30046010BD10B578
:1036000004460CB1012C00D104E040F2A1211C4879
:1036100004F04AFC1E48046010BD10B504460CB10D
:10362000012C00D104E040F2C121154804F03CFC1B
:103630001848046010BD10B504460CB1012C00D12F
:1036400004E040F2CF210E4804F02EFC0120A043FC
:103650001149086010BD10B504460CB1012C00D111
:1036600004E040F2DD21064804F01EFC0B48046033
:1036700010BD10B504460CB1012C11D115E00000AD
:10368000B48B0208042C0140A0802542A08525426D
:10369000AC812542B0812542B4812542B8812542C2
:1036A00040F2FD21774804F0FFFB7748046010BD2D
:1036B00070B504460D4614F07F4F01D104B104E00B
:1036C00040F237316F4804F0EFFB0DB1012D00D10E
:1036D00004E04FF44E716B4804F0E6FB2DB16B48EB
:1036E000006820436949086004E068480068A04316
:1036F0006649086070BD70B504460025012C3DD0B8
:10370000022C3BD0042C39D0082C37D0102C35D0CB
:10371000202C33D0402C31D0802C2FD0B4F5807F9A
:103720002CD0B4F5007F29D0B4F5806F26D0B4F545
:10373000006F23D0B4F5805F20D0B4F5005F1DD0BA
:10374000B4F5804F1AD0B4F5004F17D0B4F5803FD0
:1037500014D0B4F5003F11D0B4F5802F0ED0B4F5DD
:10376000002F0BD0B4F5801F08D0B4F5001F05D092
:10377000B4F5800F02D0B4F5000F00D104E040F2A0
:103780006931404804F090FB404808380068204206
:1037900001D0012500E00025284670BD10B5044683
:1037A0003B48044201D104B104E04FF46371354851
:1037B00004F07AFB3548001F046010BD70B5044664
:1037C0000025012C3DD0022C3BD0042C39D0082CF4
:1037D00037D0102C35D0202C33D0402C31D0802C39
:1037E0002FD0B4F5807F2CD0B4F5007F29D0B4F56C
:1037F000806F26D0B4F5006F23D0B4F5805F20D061
:10380000B4F5005F1DD0B4F5804F1AD0B4F5004F69
:1038100017D0B4F5803F14D0B4F5003F11D0B4F503
:10382000802F0ED0B4F5002F0BD0B4F5801F08D038
:10383000B4F5001F05D0B4F5800F02D0B4F5000F29
:1038400000D104E040F2B5310E4804F02DFB0F48E2
:1038500008380068204201D0012500E000252846F4
:1038600070BD10B504460A48044201D104B104E019
:1038700040F2D731034804F017FB0448001F0460EE
:1038800010BD0000B48B02088C8525423C2C014001
:1038900000F83FFF10B501218803FFF78DFB0021E1
:1038A0004FF48040FFF788FB10BD10B504462CB1E3
:1038B000012C03D0032C01D0022C00D103E069219C
:1038C000434804F0F1FA4348046010BD70B5054662
:1038D0000C4600267DB1012D0DD0022D0BD0032DFD
:1038E00009D0042D07D0052D05D0062D03D0072DB6
:1038F00001D0082D00D103E07C21354804F0D4FA32
:10390000ECB1012C1BD0022C19D0032C17D0042CA5
:1039100015D0052C13D0062C11D0072C0FD0082C55
:103920000DD0092C0BD00A2C09D00B2C07D00C2C55
:1039300005D00D2C03D00E2C01D00F2C00D103E0AC
:103940007D21234804F0B0FAA007010F0F2000FAF0
:1039500001F620480830A11050F82100B0431D495D
:103960000831A21041F822000846A11050F82100A9
:10397000A107090F05FA01F1084316490831A21001
:1039800041F8220070BD10B504460CB1012C00D1E5
:1039900003E08E210E4804F087FA0F48046010BD42
:1039A00010B504460CB1012C00D103E0A021084859
:1039B00004F07AFA0948046010BD0020054920315E
:1039C000096811F4807F01D0012000E000207047D9
:1039D000FC8B020800380140DC002742000427422B
:1039E00010B50446F84884420ED0F84884420BD003
:1039F000F748844208D0F748844205D0F64884420C
:103A000002D0F648844200D103E0B521F44804F026
:103A10004BFAED48844208D101211020FFF7CCFA7F
:103A200000211020FFF7C8FA3EE0E848844209D19F
:103A300001214804FFF799FA00214FF40030FFF705
:103A400094FA31E0E248844209D101218804FFF769
:103A50008CFA00214FF48020FFF787FA24E0DD483C
:103A6000844209D10121C804FFF77FFA00214FF4F5
:103A70000020FFF77AFA17E0D748844209D10121E4
:103A80000805FFF772FA00214FF48010FFF76DFA76
:103A90000AE0D248844207D101212020FFF78CFAA6
:103AA00000212020FFF788FA10BD2DE9FF470546C9
:103AB0000C460026B14600BFB046C34885420ED032
:103AC000C24885420BD0C248854208D0C1488542D1
:103AD00005D0C148854202D0C048854200D103E0EC
:103AE000EB21BF4804F0E0F9206820B1BD4920680F
:103AF000884200D203E0EC21B94804F0D5F9A0884F
:103B000018B1A088B0F5805F00D103E0ED21B44882
:103B100004F0CAF9E08858B1E088B0F5805F07D0BA
:103B2000E088B0F5005F03D0E088B0F5405F00D1D9
:103B300003E0EE21AA4804F0B7F9208938B12089C2
:103B4000B0F5806F03D02089B0F5C06F00D103E0DD
:103B5000EF21A34804F0A8F960894FF6F3710842F9
:103B600002D1608900B103E0F0219D4804F09CF986
:103B7000A08958B1A089B0F5807F07D0A089B0F5A1
:103B8000007F03D0A089B0F5407F00D103E0F12190
:103B9000934804F089F9A08980B18B48854208D008
:103BA0008A48854205D08A48854202D08B488542A2
:103BB00000D103E0F6218A4804F076F92E8A26F433
:103BC0004056E08806432E82AE8941F20C6086435F
:103BD000A08821890843618908430643AE81AE8AE3
:103BE00026F44076A0890643AE826846FEF723FF9E
:103BF0007548854202D07948854202D1DDF80C90A3
:103C000001E0DDF80890A88910F4004F08D009EB16
:103C1000C90000EB091021684900B0FBF1F707E08B
:103C200009EBC90000EB091021688900B0FBF1F72E
:103C30006420B7FBF0F006013009642101FB107825
:103C4000A88910F4004F08D0322000EBC800B0FB68
:103C5000F1F000F00700064308E0322000EB081006
:103C60006421B0FBF1F000F00F0006432E81BDE8A7
:103C7000FF874FF41651016000218180C1800181CE
:103C80000C21418100218181704770B505460C46A9
:103C900000264D48854208D04C48854205D04C4806
:103CA000854202D04D48854200D104E04FF4B67100
:103CB0004B4804F0F9F8208818B12088B0F5006F5F
:103CC00000D104E040F26D11454804F0EDF8608841
:103CD00018B16088B0F5806F00D104E04FF4B7717F
:103CE0003F4804F0E1F8A08818B1A088B0F5007F43
:103CF00000D104E040F26F11394804F0D5F8E088B3
:103D000018B1E088B0F5807F00D104E04FF4B871BD
:103D1000334804F0C9F82E8A26F47066208861883A
:103D20000843A1880843E188084306432E8270BDFA
:103D30000021018041808180C180704770B50446B8
:103D40000D46214884420ED0204884420BD02048A2
:103D5000844208D01F48844205D01F48844202D0C4
:103D60001E48844200D104E040F29B111C4804F03C
:103D70009BF80DB1012D00D104E04FF4CE7118482D
:103D800004F092F825B1A08940F40050A08104E02D
:103D9000A0894DF6FF710840A08170BD70B5044642
:103DA0000D46094884420ED0084884420BD008488A
:103DB000844208D00748844205D00748844202D094
:103DC0000648844210D114E0001001400044004035
:103DD00000480040004C00400050004000140140EA
:103DE000488C0208E170720040F2B511FA4804F004
:103DF0005BF8208B00F47F402083208B28432083B6
:103E000070BD70B504460D46F44884420ED0F448A7
:103E100084420BD0F348844208D0F348844205D052
:103E2000F248844202D0F248844200D104E04FF4C8
:103E3000E571E94804F038F80DB1012D00D104E036
:103E400040F2CB11E44804F02FF825B1A08940F4EA
:103E50000040A08103E0A089C0F30E00A08170BDE6
:103E600070B504460D46DD4884420ED0DC488442DD
:103E70000BD0DC48844208D0DB48844205D0DB48C4
:103E8000844202D0DA48844200D104E04FF4F27157
:103E9000D14804F009F80DB1012D00D104E040F241
:103EA000E511CD4804F000F825B1A08A40F4006087
:103EB000A08204E0A08A4FF2FF710840A08270BD8A
:103EC00070B504460D46C54884420ED0C4488442AD
:103ED0000BD0C448844208D0C348844205D0C348AC
:103EE000844202D0C248844200D104E040F21D2145
:103EF000B94803F0D9FFB5F5007F00DA04E040F2DD
:103F00001E21B54803F0D0FFC5F30800A08070BDA6
:103F100010B50446B14884420ED0B14884420BD05B
:103F2000B048844208D0B048844205D0AF488442AB
:103F300002D0AF48844200D104E040F22D21A648CF
:103F400003F0B2FFA088C0F3080010BD70B50446AE
:103F50000D46A24884420ED0A14884420BD0A1480D
:103F6000844208D0A048844205D0A048844202D0B0
:103F70009F48844200D104E04FF41871964803F042
:103F800093FF0F2D00DC04E040F26121924803F022
:103F90008BFF208A4FF6F07108402082208A284348
:103FA000208270BD70B504460D468C4884420ED008
:103FB0008B4884420BD08B48844208D08A48844284
:103FC00005D08A48844202D08948844200D104E066
:103FD0004FF41D71804803F067FF0DB1012D00D132
:103FE00004E040F275217C4803F05EFF25B1A08912
:103FF00040F00200A08104E0A0894FF6FD71084066
:10400000A08170BD70B504460D46744884420ED040
:10401000734884420BD07348844208D0724884426B
:1040200005D07248844202D07148844200D104E035
:1040300040F28F21684803F037FF15B1B5F5006FE6
:1040400000D104E04FF42471634803F02DFFA089F0
:104050004FF2FF710840A081A0892843A08170BD64
:1040600070B504460D465D4884420ED05C488442DB
:104070000BD05C48844208D05B48844205D05B4842
:10408000844202D05A48844200D104E04FF4357192
:10409000514803F009FF0DB1202D00D104E040F29A
:1040A000D5214D4803F000FF208A4FF6DF7108400C
:1040B0002082208A2843208270BD70B504460D46B8
:1040C000464884420ED0464884420BD0454884423C
:1040D00008D04548844205D04448844202D0444830
:1040E000844200D104E040F2E6213B4803F0DCFECC
:1040F0000DB1012D00D104E040F2E721364803F074
:10410000D3FE25B1208A40F48040208204E0208A3A
:104110004BF6FF710840208270BD10B504462F4851
:1041200084420ED02E4884420BD02E48844208D0C0
:104130002D48844205D02D48844202D02C48844228
:1041400000D104E040F2FE21234803F0ADFEA08937
:1041500040F00100A08110BD70B504460D461F4817
:1041600084420ED01E4884420BD01E48844208D0A0
:104170001D48844205D01D48844202D01C48844218
:1041800000D104E040F23331134803F08DFE0DB14D
:10419000012D00D104E04FF44D710F4803F084FE6F
:1041A00025B1A08A40F00800A08204E0A08A4FF662
:1041B000F7710840A08270BD70B504460D460748EF
:1041C000844208D00648844205D00648844202D082
:1041D000074884420ED112E0488C020800100140CA
:1041E0000044004000480040004C004000500040A7
:1041F000001401404FF46271FE4803F055FE208B1D
:10420000C0B22083208B40EA0520208370BD70B5AA
:1042100004460D46F848844208D0F848844205D048
:10422000F748844202D0F748844200D104E040F2CB
:104230009B31F04803F038FE0DB1012D00D104E0B0
:104240004FF46771EB4803F02FFE25B1A08A40F0D0
:104250002000A08204E0A08A4FF6DF710840A0820F
:1042600070BD70B504460D46E348844208D0E3486B
:10427000844205D0E248844202D0E248844200D120
:1042800004E04FF46D71DB4803F00EFE0DB1012D1B
:1042900000D104E040F2B531D64803F005FE25B167
:1042A000A08A40F01000A08204E0A08A4FF6EF71CF
:1042B0000840A08270BD70B504460D46CE488442C9
:1042C0000ED0CE4884420BD0CD48844208D0CE4890
:1042D000844205D0CD48844202D0CA48844200D1ED
:1042E00004E040F2FB31C34803F0DEFD042D00D0B2
:1042F00005B904E04FF47F71BE4803F0D5FDA08AF4
:104300004FF6FB710840A082A08A2843A08270BDAE
:1043100070B504460D46B84884420ED0B748844272
:104320000BD0B748844208D0B748844205D0B7487C
:10433000844202D0B348844200D104E040F20D41EF
:10434000AC4803F0B1FD0DB1012D00D104E040F205
:104350000E41A84803F0A8FD25B1A08A40F0020054
:10436000A08204E0A08A4FF6FD710840A08270BDD3
:1043700070B504460D4616469F4884420ED09F48AD
:1043800084420BD09E48844208D09F48844205D086
:104390009E48844202D09B48844200D104E040F20F
:1043A0003B41944803F080FD4FF63F70054201D138
:1043B00005B104E040F23C418E4803F075FD0EB1BA
:1043C000012E00D104E040F23D418A4803F06CFD2B
:1043D0001EB1A08A2843A08202E0A08AA843A0823E
:1043E00070BD2DE9F04704460D4617464FF0000812
:1043F000C246C1460026804884420ED07F4884428F
:104400000BD07F48844208D07F48844205D07F4843
:10441000844202D07B48844200D104E040F2BD4196
:10442000744803F041FD282D18D0A5F5E060273829
:1044300014D0A5F5C060263810D0A5F5A0602538A9
:104440000CD0A5F58060243808D0A5F5006046386A
:1044500004D0B0F5927001D0602D00D104E040F29C
:10446000BE41644803F020FD0FB1012F00D104E0EC
:1044700040F2BF415F4803F017FDA5F510606A38B0
:1044800011D15D48844208D05C48844205D05C4824
:10449000844202D05B48844200D104E040F2C4412F
:1044A000544803F001FD2646C5F3421805F01F0AE3
:1044B000012000FA0AF9B8F1010F01D10C3605E02C
:1044C000B8F1020F01D1103600E0143627B1306880
:1044D00040EA0900306003E0306820EA09003060FB
:1044E000BDE8F08770B505460C4600264248854277
:1044F0000ED0424885420BD04148854208D0424800
:10450000854205D04148854202D03E48854200D1CF
:1045100004E040F2FC41374803F0C6FC012C13D004
:10452000802C11D0402C0FD0202C0DD0102C0BD073
:10453000B4F5807F08D0B4F5007F05D0082C03D0F7
:10454000042C01D0022C00D104E040F2FD412948A6
:1045500003F0AAFCB4F5007F11D12748854208D0AA
:104560002648854205D02648854202D02548854206
:1045700000D104E040F202511E4803F095FC288867
:10458000204201D0012600E00026304670BD70B503
:1045900004460D46184884420ED0184884420BD079
:1045A0001748844208D01848844205D017488442EE
:1045B00002D01448844200D104E040F22C510D484E
:1045C00003F072FC4FF69F40054201D105B104E0B3
:1045D00040F22D51074803F067FC05F40070B0F578
:1045E000007F20D10448844217D00448844214D06C
:1045F00003480DE0488C02080010014000440040D0
:104600000048004000140140004C004000500040B1
:10461000844202D07348844200D104E040F2325117
:10462000714803F041FCE843208070BD2DE9F0475C
:1046300005460C4600270026B046B1466B48854229
:104640000ED06B4885420BD06A48854208D06A4834
:10465000854205D06948854202D06248854200D132
:1046600004E04FF4AA61604803F01EFC282C26D019
:10467000A4F5E060273822D0A4F5C06026381ED00B
:10468000A4F5A06025381AD0A4F58060243816D08F
:10469000A4F50060463812D0B0F592700FD0B4F592
:1046A000587F0CD0A4F54070253808D0B4F5587F59
:1046B00005D0B4F5187F02D0B4F5B07F00D104E086
:1046C00040F25151484803F0EFFBA4F510606A38FE
:1046D00011D14648854208D04548854205D0454815
:1046E000854202D03F48854200D104E040F2565155
:1046F0003D4803F0D9FBC4F3421804F01F06012023
:1047000000FA06F6B8F1010F02D1A889064007E0C9
:10471000B8F1020F02D1288A064001E0A88A0640BB
:104720002712012000FA07F7288807401EB117B1A9
:104730004FF0010901E04FF000094846BDE8F0875D
:104740002DE9F04104460D46002600272748844203
:104750000ED0274884420BD02648844208D02648F1
:10476000844205D02548844202D01E48844200D1AC
:1047700004E040F299511C4803F096FBA5F5C06097
:1047800026380AD0A5F5A060253806D0A5F500602A
:10479000463802D0B0F5927000D104E040F29A5150
:1047A000114803F081FBA5F510606A3811D10F485C
:1047B000844208D00E48844205D00E48844202D07C
:1047C0000848844200D104E040F29F51064803F0BB
:1047D0006BFB2E120120B04087B2F8432080BDE869
:1047E000F081000000140140488C020800100140D4
:1047F0000044004000480040004C00400050004091
:104800000948804709480047FEE7FEE7FEE7FEE764
:10481000FEE7FEE7FEE7FEE7FEE7FEE704480549A0
:10482000054A064B70470000530300088901000841
:10483000B84F0020B8550020B8510020B8510020D2
:1048400010B500214FF00060FBF78AFE4FF4A06026
:10485000FBF718FE10BD10B505F0C6FD03F055FDC1
:1048600005F0D1FD10BD70B503F041FD04464FF0D9
:10487000E02040694FF0E0218969401A00EB800098
:1048800040004FF0E0214969B0FBF1F004EB8401F6
:1048900000EB4105284670BD70B503F028FD0546C4
:1048A0004FF0E02040694FF0E0218969401A42F260
:1048B000107148434FF0E0214969B0FBF1F140F23B
:1048C0007120684301EB0014204670BD1CB5012126
:1048D0007820FEF7C8F901210846FEF712FA0C22EB
:1048E0000021B748FDF784FD0C220121B448FDF7F3
:1048F0007FFD0C220421B248FDF77AFD0C22052130
:10490000AF48FDF775FD0C220621AD48FDF770FD9F
:104910000C220721AA48FDF76BFD0C220821A848AC
:10492000FDF766FD0C220921A548FDF761FD0C226B
:104930000A21A348FDF75CFD0C220B21A048FDF7DE
:1049400057FD0C2211469E48FDF752FD0C220D2109
:104950009B48FDF74DFD0C220E219948FDF748FDBF
:104960000C220F219648FDF743FD0C2200219548AB
:10497000FDF73EFD0C2201219248FDF739FD0C2286
:1049800003219048FDF734FD0C2207218D48FDF7E7
:104990002FFD0C2208218B48FDF72AFD0C2209214E
:1049A0008848FDF725FD0C220A218648FDF720FDE9
:1049B0000C220B218348FDF71BFD0C221146814878
:1049C000FDF716FD0C220D217E48FDF711FD0C228E
:1049D0000E217C48FDF70CFD0C220F217948FDF7D4
:1049E00007FD0C2200217848FDF702FD0C22012171
:1049F0007548FDF7FDFC0C2202217348FDF7F8FC19
:104A00000C2203217048FDF7F3FC0C2204216E48B0
:104A1000FDF7EEFC0C2205216B48FDF7E9FC0C22AA
:104A200011466948FDF7E4FC0C220D216648FDF7AC
:104A3000DFFC0C220E216448FDF7DAFC0C220F216A
:104A40006148FDF7D5FC0C2200216048FDF7D0FC41
:104A50000C2201215D48FDF7CBFC0C2202215B48B2
:104A6000FDF7C6FC0C2203215848FDF7C1FC0C22BF
:104A700004215648FDF7BCFC0C2205215348FDF7E4
:104A8000B7FC0C2209215148FDF7B2FC0C2211465B
:104A90004E48FDF7ADFC02208DF8040003208DF890
:104AA000050000208DF806008DF807004FF6F37022
:104AB000009069464248FDF787F94FF68B700090E9
:104AC00069464048FDF780F94FF23F000090694683
:104AD0003D48FDF779F941F23F20009069463B4897
:104AE000FDF772F91CBD1CB502208DF804008DF88D
:104AF000050000208DF806008DF8070001218803CD
:104B0000FEF797F901210846FEF7ADF84FF48070E3
:104B1000009069462E48FDF757F9002208212C48DD
:104B2000FDF766FC00214FF48000FDF79BFE1CBDE5
:104B300070B5FFF785FE274800686422B0FBF2F1EC
:104B4000B1F1807F00D31DE021F07F40401E4FF087
:104B5000E022506150170F22002807DA13071D0EBC
:104B60001D4B00F00F04241F1D5503E013071C0EFE
:104B70001A4B1C5400BF00204FF0E0229061072028
:104B8000106100BF00F070F915A006F076F8FFF78D
:104B90009DFEFFF7A8FF70BD00BFBFF34F8F0E480B
:104BA0000C38006800F4E0600F490843001D0A4912
:104BB0000C390860BFF34F8F00BF00BFFEE7000055
:104BC000000C024000100240001402400018024095
:104BD000000002400000002018ED00E000E400E0CA
:104BE00075617274310000000000FA0510B508F01C
:104BF00082FF08F0B2FB00F0B3FC642007F0E3FB97
:104C0000322007F0E0FB03F0F8FB10BD70B586B072
:104C100006460C466EB9002001902323AC4AADA194
:104C2000B1A005F0B5FF00BF9DF804000028FBD03F
:104C300000BF6CB9002001902423A54AB2A1AAA00C
:104C400005F0A6FF00BF9DF804000028FBD000BFC0
:104C5000F56B2068B0F5165F03D14FF41650029043
:104C600006E02068B0F5E13F02D14FF4E130029058
:104C7000207900F00F00082802D10020ADF80C00C8
:104C80002079C0F3011018B90020ADF80E0007E03C
:104C90002079C0F30110012802D14003ADF80E00C5
:104CA0000020ADF81000ADF814000C20ADF8120093
:104CB00002A92868FEF7F9FE01212868FFF73EF8EF
:104CC000012240F225512868FFF78BFB002006B037
:104CD00070BDF8B504460E4617466CB9002000902A
:104CE00046238D4A7BA180A005F052FF00BF9DF8AE
:104CF00000000028FBD000BFE56B102E0DD0112E58
:104D00001AD195F9040000F01F0201219140834A55
:104D1000430942F8231000BF0EE095F9040000F0AB
:104D20001F020121914042094FF0E02303EB820270
:104D3000C2F8001100BF00BF00BF0020F8BDF8B5E9
:104D400004460E466CB9002000905C23744A61A1B1
:104D500065A005F01DFF00BF9DF800000028FBD0F6
:104D600000BFE56B00BF2868008810F0800FFAD004
:104D7000286886800120F8BDF8B504466CB900208B
:104D800000906A23674A53A157A005F001FF00BFB6
:104D90009DF800000028FBD000BFE56B4FF0FF3608
:104DA0002868008810F0200F02D028688088C6B2DA
:104DB0003046F8BD10B55C4C05F016FB40F22551AD
:104DC0002068FFF733FC38B158480BF082FA40F204
:104DD00025512068FFF7B4FC40F226612068FFF7F8
:104DE00025FC20B140F226612068FFF7A9FC05F000
:104DF0000AFB10BD10B501210846FDF734FF012163
:104E00001020FEF716F810BD1CB502208DF8040026
:104E100000208DF8060001208DF8070000208DF895
:104E200005004FF4C060009069464148FCF7CCFF94
:104E3000072209213E48FDF7DBFA07220A213C48F8
:104E4000FDF7D6FA1CBD38B5044620798DF8000070
:104E500000208DF801008DF8020001208DF803007C
:104E60006846FBF72AFB38BD1CB5FFF7C3FFFFF709
:104E7000CBFF2D4C4FF4E1300090019820F480706E
:104E80000190019820F00F0008300190019820F067
:104E9000C0000190019820F030000190019820F4AA
:104EA000007001902348214908642348C8640846DB
:104EB000DDE90012416482642046FFF7C4FF234607
:104EC00040F243121DA119480BF089F91CBD0000E6
:104ED000B08C020873657269616C20213D205254C8
:104EE0005F4E554C4C0000002825732920617373D8
:104EF000657274206661696C656420617420257335
:104F00003A2564200A00000063666720213D205294
:104F1000545F4E554C4C0000C08C020880E100E00C
:104F2000CE8C0208D98C0208240000200003002047
:104F3000000002409C8C0208BC0200207561727463
:104F400031000000704700BFFEE700BFFEE700BF72
:104F5000FEE770477047704710B500244FF480504B
:104F6000FCF737FE012803D10003FCF788FE01247B
:104F70004FF40050FCF72DFE012803D14003FCF74D
:104F80007EFE01244FF48040FCF723FE012803D16C
:104F90008003FCF774FE01244FF40040FCF719FE77
:104FA000012803D1C003FCF76AFE01240CB1FFF70E
:104FB000D2FF10BD1CB50020FEF7C4F90020FEF79B
:104FC000CFF9FEF755F900214FF40060FDF731FFEE
:104FD00000220821F748FDF70BFA00220921F548C5
:104FE000FDF706FA00220A21F248FDF701FA002235
:104FF0000B21F048FDF7FCF900220C21ED48FDF7EC
:10500000F7F900220221EC48FDF7F2F94FF4706045
:10501000009000208DF804008DF807006946E548EF
:10502000FCF7D2FE042000906946E348FCF7CCFE72
:105030004FF4805000906946DE48FCF7C5FE1CBD69
:105040001CB501218C20FDF70EFE0C220821D94849
:10505000FDF7CEF90C220921D648FDF7C9F90C223B
:105060000A21D448FDF7C4F90C220B21D148FDF7E1
:10507000BFF90C221146CF48FDF7BAF90C220221E4
:10508000CD48FDF7B5F94FF47060009001208DF820
:10509000050002208DF8040000208DF80600012094
:1050A0008DF807006946C348FCF78EFE0420009087
:1050B0006946C148FCF788FE4FF4805000900020FC
:1050C0008DF807006946BB48FCF77EFE4FF40050A0
:1050D000009000208DF8040001208DF8070069463B
:1050E000B648FCF771FE0121C802FDF7A2FE0121BE
:1050F0008805FDF7B8FD1CBD30B58FB004460D46E0
:105100004FF0FA51AE48FCF79CF90021AC48FBF790
:1051100005FDAB48FBF7B4FA4FF000600090A948DA
:1051200001900294402003900120049000200590FB
:105130004FF4806006908000079080000890002067
:1051400009904FF440300A9004200B9003200C90FB
:105150004FF400000D9080100E9069469848FBF7C0
:1051600076FB20219648FBF790FD01219448FBF740
:10517000D5FC0FB030BD30B58FB004460D464FF0B2
:10518000FA518F48FCF75DF900218D48FBF7C6FC0A
:105190008B48FBF775FA4FF000600090894801904A
:1051A00002940020039001200490002005904FF409
:1051B0008060069080000790800008900020099091
:1051C0004FF440300A9004200B9003200C904FF4D1
:1051D00000000D9080100E9069467948FBF737FB70
:1051E00020217748FBF751FD01217548FBF796FC1C
:1051F0000FB030BD0146002201E04908521C0029D1
:10520000FBD1501E704770B506460D466C6AB560FE
:10521000287E10F00F0F03D100206B4988600BE04F
:10522000287E00F00F00032803D1C0206649886063
:1052300002E0402064498860634968680860286823
:1052400048600020C8604FF480600861286820B979
:1052500001218020FEF72CFA03E001214520FEF712
:1052600027FA5948FEF791F8002C46D000205549FE
:1052700054390860401E55490860D4E9000148438C
:10528000524948602068FFF7B5FF00014F49886028
:10529000207C10F0010F02D00020C86006E0207CC6
:1052A00010F0020F02D002204849C8600020474990
:1052B0000861012048610846FEF7D5F8207C10F00F
:1052C000010F07D0D4E9002302FB03F1A068FFF728
:1052D00013FF0AE0207C10F0020F06D0D4E900236F
:1052E00002FB03F1A068FFF746FF012140F22A30DC
:1052F000FEF7DEF90120FEF7BCF970BD10B50446DB
:10530000E068012807D10220E0606068416820461B
:10531000FFF779FF10E0E06802280AD16068806832
:1053200038B10420E060606881682046FFF76BFFB9
:1053300002E0206808F057F810BD2DE9F04107465B
:105340000D46BC68666A0020FEF775F8A060042070
:10535000FEF771F8E0600820FEF76DF820610C2080
:10536000FEF769F8606140F23F20054245D015F034
:10537000010F06D0207E10F0050F02D00020206221
:105380003DE015F00A0F0ED046B315F0080F03D01C
:105390006FF00100F06025E015F0020F22D04FF011
:1053A000FF30F0601EE015F0040F11D06FF0010027
:1053B000206217E000080240000C0240001C02407E
:1053C00058640240802C014094030020A803002070
:1053D00015F0010F03D04FF0FF30206202E04FF0D4
:1053E000FF30206223680EB1F06800E00020024622
:1053F00089A0216A05F0CCFB01E00020206238463C
:10540000FFF77CFFBDE8F08170B500258D4804688A
:1054100040F23F20044203D0FEF723FA01252CE09E
:105420004020FEF7CBF940B14020FEF71AFA86483B
:1054300000688068406A00B901258020FEF7BEF947
:1054400018B18020FEF70DFA01254FF48070FEF7A9
:10545000B5F920B14FF48070FEF703FA01254FF43F
:105460008000FEF7ABF940B14FF48000FEF7F9F988
:105470007549096808680AF0E6FA4DB1002140F262
:105480003F20FEF715F921466F480068FFF755FFEA
:1054900070BD70B505460E46D5F8844066600120A3
:1054A000E0602046FFF72AFF70BD70B506460C4647
:1054B000206820B90020FDF745FF002510E0634972
:1054C0002068B1FBF0F5022D01D2002500E0AD1EF1
:1054D0005F490D750846FDF7D6FE0120FDF732FF46
:1054E000607A022803D180025949C86002E0002096
:1054F0005749C860207A20B1012806D0022809D176
:1055000004E00020FDF72CFF09E008E00320FDF790
:1055100027FF04E0217A4FA005F03AFB00BF00BF4F
:105520004B48FDF7B0FE70BD70B505460C4624B182
:1055300001218805FEF7BCF804E000214FF480004B
:10554000FEF7B6F870BD38B504460120009041035F
:105550004648FCF72AFD08B100200090009838BDAD
:1055600038B508F091FA044614B94FF0FF3038BD51
:10557000102005F015FD344908600846006818B988
:105580003BA005F005FB38E0102200212E48006802
:1055900004F07FFF3D4860603D48A0603D48E0600A
:1055A0004FF44010E061052020624FF6FF7060620A
:1055B0000220A0620002E062C0002063224800686E
:1055C00004602348FDF7B6FEFFF73AFD31208DF861
:1055D000000000208DF801008DF8020001208DF8F8
:1055E00003006846FAF769FF17480068C4F88400AA
:1055F000204608F0C9F90020B9E7204608F06DFA06
:105600006FF00400B3E710B504F0EEFEFFF7FCFE08
:1056100004F0F9FE10BD00006572726F72206465BF
:1056200074656374656420616E64207365742074AE
:105630006F2025642F25642028636D64203D20257C
:1056400064290A00342C01402C000020006CDC028C
:105650007C030020756E6B6E6F776E20706F7765C0
:10566000725F6D6F64652025640A0000001C0240B3
:10567000616C6C6F632073746D333266345F736476
:10568000696F206661696C65640A0000E48C020839
:10569000D8B8050040787D0110B501214806FDF716
:1056A000EFFB00214FF00070FDF7EAFB10BD70B575
:1056B00086B00446002500200590F74E0090206833
:1056C000012801D0206800B903E0A021F3A002F076
:1056D000EBFB606818B16068B0F5000F00D103E023
:1056E000A121EEA002F0E0FBA06818B1A068B0F51F
:1056F000800F00D103E0A221E8A002F0D5FBE06812
:10570000D8B1E068B0F5003F17D0E068B0F5802F61
:1057100013D0E068B0F5C02F0FD0E068B0F5002FCF
:105720000BD0E068B0F5202F07D0E068B0F5402F2F
:1057300003D0E068B0F5602F00D103E0A321D7A02B
:1057400002F0B2FB206918B12069B0F5803F00D1AA
:1057500003E0A421D1A002F0A7FB606918B1606941
:10576000B0F5804F00D103E0A521CCA002F09CFB56
:10577000A06918B1A069B0F5005F00D103E0A621CF
:10578000C6A002F091FBE069B0F5805F01D0E0694E
:1057900000B903E0A721C1A002F086FB206AB0F5A2
:1057A000006F01D0206A00B903E0A821BBA002F07D
:1057B0007BFB606AB0F5806F01D0606A00B903E0DE
:1057C000A921B6A002F070FBA06A18B1A06AB0F5DA
:1057D000007F00D103E0AA21B0A002F065FBE06ADF
:1057E000802801D0E06A00B903E0AB21ABA002F051
:1057F0005BFB206B40B1206B202805D0206B40283C
:1058000002D0206B602800D103E0AC21A3A002F0FD
:105810004BFB606B102801D0606B00B903E0AD2139
:105820009EA002F041FBA06BB0F1004F01D0A06B35
:1058300000B903E0AE2199A002F036FBE06BB0F5B1
:10584000007F05D0E06BB0F5407F01D0E06B00B980
:1058500003E0AF2191A002F027FB206C402805D087
:10586000206C802802D0206CC02800D103E0B02139
:105870008AA002F019FB606C10B1606C202800D186
:1058800003E0B12185A002F00FFBA06C10B1A06C69
:10589000082800D103E0B22180A002F005FB206DB2
:1058A000A0F58061043907D0206D042804D0206D54
:1058B00010B1206D102800D103E0B42177A002F0D0
:1058C000F3FA606DA0F58061023904D0606D0228A2
:1058D00001D0606D00B903E0B52170A002F0E4FAD8
:1058E000206EB0F5803F00D203E0B6216BA002F03D
:1058F000DBFA606E10B1606E802800D103E0B72142
:1059000066A002F0D1FAA06E40B1A06E102805D0BA
:10591000A06E202802D0A06E302800D103E0B8216C
:105920005EA002F0C1FAE06E082801D0E06E00B976
:1059300003E0B92159A002F0B7FA206F042801D082
:10594000206F00B903E0BA2154A002F0ADFA606FF5
:10595000022801D0606F00B903E0BB214FA002F024
:10596000A3FAA06FB0F5803F01D0A06F00B903E0AB
:10597000BC214AA002F098FAE06FB0F5803F00D257
:1059800003E0BD2145A002F08FFAD4F8800020B1D9
:10599000D4F88000B0F1806F00D103E0BF213FA0B8
:1059A00002F082FAD4F88400B0F1007F02D0D4F87B
:1059B000840000B903E0C02138A002F075FAD4F8E1
:1059C000880020B1D4F88800B0F1807F00D103E0D6
:1059D000C12132A002F068FAD4F88C00B0F5001FA3
:1059E00002D0D4F88C0000B903E0C2212BA002F051
:1059F0005BFAD4F8900010B3D4F89000B0F5804F63
:105A00001DD0D4F89000B0F5004F18D0D4F8900015
:105A1000B0F5404F13D0D4F89000B0F5803F0ED0D1
:105A2000D4F89000B0F5A03F09D0D4F89000B0F5BC
:105A3000C03F04D0D4F89000B0F5E03F00D103E0BF
:105A4000C32116A002F030FAD4F89400802802D0C6
:105A5000D4F8940000B903E0C42110A002F024FAA5
:105A6000D4F89800402802D0D4F8980000B903E098
:105A7000C5210AA002F018FAD4F89C0058B1D4F855
:105A80009C00082807D0D4F89C00102803D0D4F834
:105A90009C00182810D114E0008793032E2E2F6449
:105AA0007269766572732F73746D333266347878E9
:105AB0005F6574682E630000C621AFF2200002F01B
:105AC000F3F9D4F8A000042802D0D4F8A00000B95B
:105AD00004E0C721AFF23C0002F0E6F9D4F8A400DC
